:020000040800F2
:1000000008060020450100084D0100084F010008C6
:1000100051010008530100085501000800000000CC
:100020000000000000000000000000005701000870
:1000300059010008000000005B0100085D01000894
:100040005F0100085F0100085F0100085F01000810
:100050005F0100085F0100085F0100085F01000800
:10006000411600085F0100085F0100085F010008F9
:100070005F0100085F0100085F0100085F010008E0
:100080005F0100085F0100085F010008C93B00082C
:10009000ED3B00085F0100085F0100085F010008F8
:1000A0005F0100085F0100085F0100085F010008B0
:1000B0005F0100085F0100085F0100085F010008A0
:1000C0005F0100085F0100085F0100085F01000890
:1000D0005F010008113800085F0100085F01000897
:1000E0003D1600085F0100085F0100085F0100087D
:1000F0005F0100085F0100085F0100085F01000860
:100100005F0100085F0100085F0100085F0100084F
:10011000A93600085F01000829310008E131000814
:100120005F0100085F0100085F0100085F0100082F
:10013000DFF80CD000F0D4FB00480047454E000823
:10014000080600200648804706480047FEE7FEE70D
:10015000FEE7FEE7FEE7FEE7FEE7FEE7FEE7FEE777
:10016000912F00083101000840EA01039B0703D0EA
:1001700009E008C9121F08C0042AFAD203E011F8E6
:10018000013B00F8013B521EF9D27047F0B480EAFF
:100190000102D40F4200B2EB410F02D202460846E0
:1001A00011464A0042D0C30DDDB2C1F3C752AD1AA9
:1001B000202D35DAC1F3160141F4000204B1524298
:1001C000C5F1200602FA06F12A411044B3EBD05FD4
:1001D00023D0C4B1012DA0EBC35009DCF0BC4FF01B
:1001E000004202EAC352DBB200F5000000F0F5B9AC
:1001F000400000F1807000EBC350A0F1807040EA35
:10020000D170490009E0490841EAC071A0EBC35030
:1002100000F50000400800EBC350F0BC00F0D4B97A
:100220006142012202EB4101001BF6E7F0BC70477E
:1002300081F00041AAE780F00040A7E780EA0102D0
:1002400010B502F00043400022D04A001FD0010E3A
:1002500001EB1261C0F35600C2F3560240F40000F5
:1002600042F40002A0FB022000047F39140400D0F5
:10027000401C50EA124001D44000491EC2B20C0694
:1002800004EBD010401C4008802A02D003E000207C
:1002900010BD20F00100002900DA0020184310BD35
:1002A00030B480EA010202F0004530F0004221F053
:1002B000004013D090B1C30DD40DC2F31601C0F3AA
:1002C0001600E41A41F4000140F400027D3491422A
:1002D00001D3641C00E04900002C02DA30BC00208D
:1002E00070474FF400000023914201D3891A034361
:1002F00040084FEA4101F7D151B1914202D14FF08C
:10030000004105E002D24FF0010101E06FF0010170
:1003100003EBC450284430BC00F056B92DE9FE4F21
:1003200081EA030404F0004421F0004100944FF0FE
:10033000000B23F0004350EA01045ED052EA0304AC
:100340005BD0C3F30A54C1F30A552C44A4F2F3342E
:100350000194A0FB0254C1F3130141F48011C3F3D3
:10036000130343F4801301FB024400FB034E840A91
:10037000970A44EA815447EA8357A4FB0768029529
:100380008D0A05FB07854FEA932C04FB0C542705C7
:10039000029D4FEA065847EA1637B5EB08056EEBA3
:1003A000070C870E920E47EA811742EA8312A7FBD9
:1003B0000201B6EB0B0164EB00042B0D43EA0C3396
:1003C0005E1844EB1C50DA465146E7FB0201C5F3C8
:1003D00013044FEA0B3343EA14534FEA0432019CEF
:1003E00043EA0603A4F10C040294009CCDE900B496
:1003F00000F030F903B0BDE8F08F00200146F9E7C6
:100400002DE9F04D81EA030404F0004B21F0004592
:1004100014464FF0000A23F0004150EA050220D0B4
:1004200054EA01021DD0C5F30A570246C5F313036F
:10043000C1F31300C1F30A5640F4801543F480134E
:10044000A7EB0608101BD64608F2FD3873EB050033
:1004500002D308F1010801E092185B41B8F1000FE6
:1004600003DA00200146BDE8F08D00204FF4801132
:10047000064684460EE0171B73EB050705D3121BD7
:1004800063EB050306434CEA010C49084FEA3000D0
:1004900092185B4150EA0107EDD152EA030012D0F5
:1004A00082EA040083EA0501084305D0101BAB4132
:1004B00006D20122002306E000224FF0004302E0B2
:1004C0006FF0010253101AEB06004CEB085110EBD1
:1004D0000A0041EB0B01BDE8F04D00F0ACB800F0B4
:1004E000004220F00040C10DC0F3160040F40000AF
:1004F0007F2901DA00207047962903DCC1F19601BB
:10050000C84001E096398840002AF4D04042704744
:1005100000F0004230F000400AD0C10D01F56071DA
:10052000C0F3160042EA0151C20840071143704768
:10053000002001467047000030B5041E71F1000430
:1005400004DB4FF00044404264EB0101141E73F1E0
:10055000000405DB1C464FF00043524263EB0403EA
:100560008B4208BF824230BD01F0004330B421F01D
:10057000004150EA010206D00A0DA2F56072C1F3F3
:100580001301002A02DC30BC00207047440F44EA0B
:10059000C104C100E01830BC00EBC25000F014B838
:1005A000002801DBC0F10040002901DBC1F100415E
:1005B00081427047002801DBC0F10040002901DBC7
:1005C000C1F10041884270470029A8BF7047401C14
:1005D000490008BF20F00100704710B4B0FA80FC59
:1005E00000FA0CF050EA010404BF10BC704749B196
:1005F000CCF1200421FA04F411FA0CF118BF012106
:1006000021430843A3EB0C01CB1D4FEA00614FEAE5
:10061000102042BF002010BC704700EBC3501044B4
:100620000029A4BF10BC7047401C490008BF20F03F
:10063000010010BC704710B5141E73F1000408DAF5
:10064000401C41F1000192185B411A4301D120F096
:10065000010010BD2DE9F04D92469B4611B1B1FA53
:1006600081F202E0B0FA80F22032904600F04AF9BE
:1006700004460F4640EA0A0041EA0B0153465A4637
:10068000084313D0114653EA010019D0C8F14002C3
:10069000504600F046F905460E4650465946424639
:1006A00000F030F9084305D0012004E02046394627
:1006B000BDE8F08D0020054346EAE0762C43374341
:1006C0000A986305E40AA0EB08000022FD0A44EA48
:1006D00047540A3002D500200146E9E70105101908
:1006E0006941DDE9084500196941BDE8F04DA2E71F
:1006F0002DE9FE4F804681EA0300C00F0C460090B2
:1007000021F0004123F00045B8EB0200A94105D2D9
:100710004046214690461C460B46024623F00040C8
:10072000104347D0270DC7F30A00C3F30A510290C4
:10073000401A019040286BDAC3F3130040F4801B89
:100740000098924620B10023D2EB030A63EB0B0B17
:1007500001985946C0F14002504600F0D3F80646D1
:100760000D4650465946019A00F0EBF810EB080090
:100770006141002487EA115284EAE7731A4340D0AA
:10078000009A62B3019A012A4FEA075215DC001B56
:1007900061EB02014FF0004202EA0752CDE900424C
:1007A000001C41F5801132462B46FFF753FF03B082
:1007B000BDE8F08F40462146F9E7001B61EB0201DE
:1007C000001C41F5801300185B412018A2F50017AA
:1007D00047EB030140EAD570B6196D4111E06D0891
:1007E0004FEA360645EAC0754FEA0752001B61EB37
:1007F0000201001C41F5801149084FEA3000001940
:10080000514132462B4603B0BDE8F04FFFF713BF0E
:100810000098012240000023D0EB020263EBE0735A
:10082000009821464FEAE074B8EB000061EB040148
:10083000E9E783F000435BE781F0004158E72DE9E9
:10084000F04D00231A461B1A8A4103DB00200146A3
:10085000BDE8F08DC1F30A52C1F3130141F48015D4
:100860004FF0000BD10702D100186D41521E002736
:10087000044640F2FF11384601EB620A3E468046CC
:10088000024600204FF4801100F04BF8C21971416C
:10089000BB1846EB0100B4EB030C75EB000C04D362
:1008A000E41A65EB000517460E46241908F101000D
:1008B0006D4180463428E3DDF91946EB0600091B3B
:1008C000A84103D24FF0FF32134601E00022134645
:1008D0001BEB070046EB0A51BDE8F04DFFF7ABBE3E
:1008E000064C074D06E0E06840F0010394E807007D
:1008F00098471034AC42F6D3FFF71EFCE0780008AE
:1009000000790008202A04DB203A00FA02F10020D6
:1009100070479140C2F1200320FA03F3194390403D
:100920007047202A04DB203A21FA02F000217047A8
:1009300021FA02F3D040C2F1200291400843194647
:100940007047202A06DBCB17203A41FA02F043EA2F
:10095000E07306E041FA02F3D040C2F12002914078
:1009600008431946704770B521F0004303430CD08B
:10097000C1F30A550024D5EB040564EB0403D61734
:10098000AD1AB34102DB0020014670BD201841EBD7
:10099000025170BD0EB5C10F80EAE0700844CA076D
:1009A000002140F233438DE80E000A460B46FFF764
:1009B00051FE03B000BD0EB540F23341029100215B
:1009C000CDE900110A460B46FFF744FE03B000BD17
:1009D00070B5C1F30A5201F000450024C1F31301C0
:1009E00040F2FF3341F480119A4201DA002070BDD9
:1009F00040F233439A42A2F2334203DC5242FFF701
:100A000090FF00E090402C43F1D0404270BD70B5A3
:100A10008C1810F8015B15F0070301D110F8013BA9
:100A20002A1106D110F8012B03E010F8016B01F830
:100A3000016B5B1EF9D12B0705D40023521E0DD488
:100A400001F8013BFAE710F8013BCB1A921C03E0D6
:100A500013F8015B01F8015B521EF9D5A142D8D30E
:100A6000002070BD21B1826842F00102826003E083
:100A7000826822F0010282607047014600208A6885
:100A800002F004020AB1012000E000207047014694
:100A900000208A6802F008020AB1012000E000206C
:100AA0007047000030B502460020002350680F4C0C
:100AB00020400D790C6844EA05242043506090687A
:100AC0000B4C2040D1E902542C434D7944EA4504B3
:100AD00020439060D06A20F470000C7C641EE4B265
:100AE000234340EA0350D06230BD0000FFFEF0FF18
:100AF000FDF7F1FF00B587B00121480201F0AAFF20
:100B00000121042001F0A6FF4FF4004001F076FF20
:100B10000820ADF8040000208DF8070001A91C484A
:100B200000F078FE002002908DF80C0001208DF876
:100B30000D004FF4602004900020059001208DF8F6
:100B4000180002A91348FFF7ADFF0023012203217B
:100B5000104800F021F801210E48FFF783FF0D48EF
:100B600000F076F800BF0B48FFF791FF0028FAD19C
:100B7000084800F07DF800BF0648FFF77EFF002818
:100B8000FAD10121034800F068F807B000BD000069
:100B90000008014000240140F0B504460D46002045
:100BA0000021092D11DDE068A5F10A0606EB4607D4
:100BB000072606FA07F18843A5F10A0606EB460662
:100BC00003FA06F10843E0600CE0206905EB4507F5
:100BD000072606FA07F1884305EB450603FA06F1F6
:100BE00008432061072A0FDA606B561E06EB860762
:100BF0001F2606FA07F18843561E06EB860605FAFD
:100C000006F10843606322E00D2A0FDA206BD61F3D
:100C100006EB86071F2606FA07F18843D61F06EB68
:100C2000860605FA06F10843206310E0E06AA2F1A7
:100C30000D0606EB86071F2606FA07F18843A2F188
:100C40000D0606EB860605FA06F10843E062F0BDE4
:100C5000816841F008018160704721B1826842F4E7
:100C6000A002826003E0826822F4A00282607047E2
:100C7000816841F00401816070470000B1F5007F98
:100C80003AD00FDC202928D006DC01291CD0042909
:100C90001DD0082940D11DE0402921D0B1F5807F29
:100CA0003AD126E0B1F5004F31D006DCB1F5806FC6
:100CB00025D0B1F5006F2FD124E0B1F5803F12D0DF
:100CC000B1F5003F28D111E0154A826025E00822E5
:100CD000C26022E01022C2601FE0082202611CE014
:100CE0001022026119E00822426016E010224260E0
:100CF00013E00422426010E0042242600DE004226E
:100D000042600AE0002282610422426005E0002283
:100D100082610422426000E000BF00BF7047000013
:100D20000101010010B500F0CDF800F02DFA00F03F
:100D3000A1F810BD10B504460B48844209D1012129
:100D4000480601F077FE00214FF0007001F072FEBE
:100D500008E00121880601F06DFE00214FF080605F
:100D600001F068FE10BD00000064004010B50021D5
:100D7000837A012202FA03F13D4A126842F001022D
:100D80003B4B1A603A4A1C3212688A43384B1C3378
:100D90001A60027BCAB9364A0C3212688A43344B55
:100DA0000C331A604288C38842EA0343304A403217
:100DB000847A42F834300288838842EA03432C4A1A
:100DC0004032847A02EBC4025360027B012A19D1BB
:100DD000274A0C3212680A43254B0C331A604288AA
:100DE000038842EA0343224A4032847A42F834308C
:100DF000C288838842EA03431D4A4032847A02EB68
:100E0000C4025360C27A3AB9194A121D12688A4361
:100E1000174B1B1D1A6006E0154A121D12680A4383
:100E2000134B1B1D1A60028932B9114A1432126821
:100E30008A430F4B14331A600289012A06D10C4AE7
:100E4000143212680A430A4B14331A60427B012A97
:100E500006D1074A1C3212680A43054B1C331A603C
:100E6000034A126822F00102014B1A6010BD000013
:100E7000006600401FB500208DF80A008DF80B00B9
:100E800001208DF80C000020ADF80000ADF8020044
:100E9000ADF80400ADF80600ADF8080001208DF8AB
:100EA0000D006846FFF762FF01220221044800F0AE
:100EB000D7F801221146024800F0D2F81FBD000009
:100EC0000064004008B50121242001F0C3FD012188
:100ED000480601F09FFD4FF40060ADF80000482087
:100EE0008DF8030003208DF802006946124800F0D7
:100EF00091FC4FF48050ADF8000018208DF80300ED
:100F000003208DF8020069460B4800F083FC4FF483
:100F10008060ADF8000010208DF8030003208DF8EC
:100F200002006946054800F075FC4FF480610348F3
:100F300000F04DFD08BD0000000801400014014014
:100F400070B504460D46002660692840002871D01F
:100F5000B5F5807F5CD010DC082D35D006DC012D86
:100F600020D0022D24D0042D72D127E0102D31D0B5
:100F7000202D35D0402D6BD138E0B5F5004F60D035
:100F800009DCB5F5007F49D0B5F5806F4CD0B5F5DB
:100F9000006F5DD14FE0B5F5803F2DD0B5F5003F36
:100FA00056D12FE0A0682D4900F03FFB064651E0E6
:100FB000E068032100F039FB06464BE0E0680821B9
:100FC00000F033FB064645E0E068102100F02DFB01
:100FD00006463FE02069032100F027FB064639E082
:100FE0002069082100F021FB064633E0206910212A
:100FF00000F01BFB06462DE06068082100F015FBA1
:10100000064627E06068102100F00FFB064621E04D
:10101000A069012100F009FB06461BE0A06902213E
:1010200000F003FB064615E0A069042100F0FDFA7C
:1010300006460FE00FE0A069702100F0F6FA0646C0
:1010400008E06068042100F0F0FA064602E0FFE7DD
:10105000002600BF00E00026304670BD01010100FF
:101060001AB143690B43436102E043698B43436117
:10107000704730B5024600200023146824F00204B3
:101080001460146844F00104146000E05B1C5468B0
:1010900004F001041CB94FF6FF74A342F6D1546862
:1010A00004F001040CB900206CE08C79012C04D10F
:1010B000146844F08004146003E0146824F0800491
:1010C0001460CC79012C04D1146844F040041460FD
:1010D00003E0146824F0400414600C7A012C04D15D
:1010E000146844F02004146003E0146824F0200421
:1010F00014604C7A012C04D1146844F0100414607C
:1011000003E0146824F0100414608C7A012C04D1DC
:10111000146844F00804146003E0146824F0080420
:101120001460CC7A012C04D1146844F004041460D7
:1011300003E0146824F0040414608C78A407CD78CC
:1011400044EA05640D7944EA05444D7944EA0554BE
:101150000D886D1E2C43D461146824F001041460C2
:10116000002300E05B1C546804F001041CB14FF63E
:10117000FF74A342F6D1546804F001040CB10020BE
:1011800000E0012030BD00000EB51348FFF7D2FD8E
:10119000684600F0A7F900208DF806008DF80700DA
:1011A0008DF808008DF809008DF80A0001208DF8EF
:1011B0000B0000208DF802008DF8030004208DF84C
:1011C000040002208DF805000420ADF800006946F7
:1011D0000148FFF74EFF0EBD0064004010B500F55A
:1011E000D87303EB01131B6803F004031372137A23
:1011F00053B900F5D87303EB01131B6840F2FF7479
:1012000004EA5353136009E000F5D87303EB0113AC
:101210001B686FF0604404EAD303536000F5D87391
:1012200003EB01131B6803F00203537200F5D8733C
:1012300003EB01135B6803F00F03937200F5D8739F
:1012400003EB01135B681B0AD37400F5D87303EB3F
:1012500001139B68D37200F5D87303EB01139B68ED
:101260001C0A147300F5D87303EB01139B681C0C64
:10127000547300F5D87303EB01139B681B0E937333
:1012800000F5D87303EB0113DB68D37300F5D87353
:1012900003EB0113DB681C0A147400F5D87303EB2D
:1012A0000113DB681C0C547400F5D87303EB0113B5
:1012B000DB681B0E937421B9C36843F02003C3603D
:1012C00003E0036943F02003036110BD2DE9F04101
:1012D00086B005460E4690461C460A2700208DF82B
:1012E0000C008DF80D0008208DF80E00072D06DC8F
:1012F0000F2E04DC47EA052747EA061702E006B08E
:10130000BDE8F08114B1012C00D0002401978DF8C4
:101310000F808DF8104055218DF811108DF81210A6
:101320008DF813108DF814108DF815108DF8161017
:1013300000200649087001A9054800F0E3F800BF45
:10134000024800780028FBD000BFD8E72C0100201D
:10135000006400402DE9F04186B005460E46144673
:101360001F464FF0070800208DF80C008DF80D0087
:1013700008208DF80E00072D06DC0F2E04DC48EA4D
:10138000052848EA061802E006B0BDE8F081CDF86D
:101390000480002C05DA201E01DB014600E04142FA
:1013A0000CB2200A8DF80F008DF81040390A8DF824
:1013B00011108DF8127055218DF813108DF814103E
:1013C0008DF815108DF8161000200649087001A937
:1013D000054800F097F800BF024800780028FBD0CD
:1013E00000BFD1E72C01002000640040F0B585B0BB
:1013F00004460D461746012600208DF808008DF89A
:10140000090008208DF80A00072C06DC0F2D04DCEB
:1014100046EA042646EA051601E005B0F0BD00964E
:101420008DF80B7055218DF80C108DF80D108DF87E
:101430000E108DF80F108DF810108DF811108DF81A
:1014400012100020064908706946064800F05AF854
:1014500000BF034800780028FBD000BFDDE7000094
:101460002C0100200064004070B586B004460D4693
:10147000002600208DF80C008DF80D0008208DF856
:101480000E00072C06DC0F2D04DC46EA042646EA93
:10149000051601E006B070BD019655208DF80F00CD
:1014A00055218DF810108DF811108DF812108DF84F
:1014B00013108DF814108DF815108DF816100020EB
:1014C0000649087001A9064800F01CF800BF03484F
:1014D00000780028FBD000BFDCE700002C010020D2
:1014E0000064004000218171C171017241728172FA
:1014F000C1728170C170032101710221417101210A
:101500000180704710B502460020936803F08063A5
:10151000B3F1806F00D110E0936803F00063B3F182
:10152000006F01D1012008E0936803F08053B3F10C
:10153000805F01D1022000E00420042874D002F56D
:10154000C07303EB00131B6803F0010402F5C073C2
:1015500003EB00131C600B7A7BB94B7A0C8843EACF
:10156000445302F5C07404EB00142468234302F5CD
:10157000C07404EB0014236010E00B7A4C6843EA5B
:10158000C4034C7A234302F5C07404EB00142468AE
:10159000234302F5C07404EB001423608B7A03F03C
:1015A0000F038B7202F5C07303EB00135B6823F02B
:1015B0000F0402F5C07303EB00135C6002F5C07307
:1015C00003EB00135B688C7A234302F5C07404EBD1
:1015D000001463608B7B1C064B7B44EA03440B7B4B
:1015E00044EA0323CC7A234302F5C07404EB0014CD
:1015F000A3608B7C1C064B7C44EA03440B7C44EACE
:101600000323CC7B234302F5C07404EB0014E36096
:1016100002F5C07303EB00131B6843F0010402F5ED
:10162000C07303EB00131C6010BD0246002002EAE9
:1016300001030BB1012000E000207047704700005B
:1016400010B5042000F05EF801284BD1042000F012
:1016500053F80821244800F0BAF9072001F070FB84
:1016600004462146272001F0A9FB04F0400040B1C8
:1016700004221E49612001F03FFBFF21E22001F01E
:101680009DFB1A48007822280BD0184800782228A1
:1016900007D016480078222803D014480078222862
:1016A00005D10120124908700020124908700F4826
:1016B000007811280BD00D480078112807D00B486E
:1016C0000078112803D009480078112805D100209E
:1016D000074908700120074908700821024800F0F6
:1016E00078F900BF10BD000000080140260000206E
:1016F0002A0000202B0000200149086070470000EC
:1017000014040140014600200022074B1B6803EA35
:101710000102054B14331B680B4013B10AB10120C1
:1017200000E0002070470000000401400021234930
:101730008279002A3AD00A46126803689A430B4617
:101740001A600A1D126803689A430B1D1A60027919
:1017500011440A6803681A430A60184A083212687A
:1017600003689A43154B08331A601A1D1268036800
:101770009A43124B0C331A604279102A0ED11A1F69
:10178000126803681A430D4B08331A601A1D126859
:1017900003681A43094B0C331A600DE0074942797C
:1017A00011440A6803681A430A6005E0027911448B
:1017B0000A6803689A430A60704700000004014009
:1017C00010B50121084601F055F90021012001F072
:1017D00051F910BD30B500228B071C0F0F2303FAFF
:1017E00004F20B4B8C1053F824309343084C8D10AB
:1017F00044F8253023468C1053F824308C07240FEE
:1018000000FA04F42343024C8D1044F8253030BD17
:10181000080001402DE9F041024600250026002085
:1018200000230024002791F803C00CF00F0591F865
:1018300003C00CF0100CBCF1000F03D091F802C0F3
:101840004CEA050591F800C0BCF1000F31D01468D6
:1018500000202BE04FF0010C0CFA00F3B1F800C0AF
:101860000CEA03069E4220D183004FF00F0C0CFAC5
:1018700003F7BC4305FA03FC4CEA040491F803C0E7
:10188000BCF1280F06D14FF0010C0CFA00FCC2F895
:1018900014C00AE091F803C0BCF1480F05D14FF025
:1018A000010C0CFA00FCC2F810C0401C0828D1D36F
:1018B0001460B1F800C0BCF1FF0F34DD54680020A3
:1018C0002EE000F1080C4FF0010808FA0CF3B1F813
:1018D00000C00CEA03069E4221D183004FF00F0C9A
:1018E0000CFA03F7BC4305FA03FC4CEA040491F834
:1018F00003C0BCF1280F05D100F1080C08FA0CF860
:10190000C2F8148091F803C0BCF1480F07D100F170
:10191000080C4FF0010808FA0CF8C2F81080401CBF
:101920000828CED35460BDE8F0810000F0B50A4627
:10193000002300240021002500F00046B6F1004FEE
:1019400002D11D4EF16901E01B4E7168C0F30345E1
:1019500083B200F44016B6F5401F08D121F0706143
:10196000154E766826F07066134F7E6012E000F424
:101970008016B6F5801F06D1032606FA05F4A143AA
:1019800041F0706106E0460D360103FA06F6B143F8
:1019900041F0706122B1460D360103FA06F631437B
:1019A00000F00046B6F1004F02D1034EF16101E0B4
:1019B000014E7160F0BD00000000014002460020B1
:1019C00093680B400BB1012000E00020704741619B
:1019D00070470161704700000E48C06940F0100078
:1019E0000C49C86147200C49088540F2E7308885DA
:1019F0000846808940F0010088810846008840F050
:101A000004000880002088840846008840F0010017
:101A10000880704700100240001000400EB5012100
:101A2000202000F0F7FF42F20F70ADF804004720CD
:101A3000ADF800000020ADF80600ADF802006946E0
:101A4000084801F0DFFD0121064801F0F5FB012205
:101A50001146044801F017FD0121024801F0F2FB94
:101A60000EBD00000014004008B50121202000F048
:101A7000F1FF4FF40060ADF8000048208DF803003E
:101A800069462A48FFF7C6FE4FF48050ADF80000C3
:101A900048208DF8030069462448FFF7BBFE4FF449
:101AA0000050ADF8000048208DF8030069461F483B
:101AB000FFF7B0FE4FF48040ADF8000048208DF8ED
:101AC000030069461948FFF7A5FE4FF40040ADF842
:101AD000000048208DF8030069461448FFF79AFE7D
:101AE00003F0A4FC072003F025FD0A21012003F0E8
:101AF00017FB0B21022003F013FB0C21032003F042
:101B00000FFB0D21042003F00BFB0E21052003F039
:101B100007FB0F21062003F003FB3C21044800785B
:101B200003F0FEFA072003F0E5FB08BD00140140B6
:101B30007400002038B5002446E0204603F070F918
:101B400078BB2348005D401C214908550846005DCC
:101B5000012800DC36E01E48005D022808D18DF81F
:101B6000004000208DF80100009803F0FDFA28E005
:101B70001748005D322800DC24E01548005D33285A
:101B80000BD18DF8004002208DF80100009803F081
:101B9000EBFA02200E49085513E002200C490855C3
:101BA0000FE0FFE70A48005D012807DD8DF80040DF
:101BB00001208DF80100009803F0D6FA00200449B6
:101BC000085500BF601CC4B2052CB6DB38BD000050
:101BD0005D01002008B50121082000F03BFF4FF413
:101BE0007040ADF8000003208DF8020010208DF841
:101BF000030069460A48FFF70DFE0121202000F08E
:101C000029FF4FF44070ADF8000003208DF802006A
:101C100010208DF8030069460248FFF7FBFD08BD60
:101C2000000C01400014014010B504465A480470ED
:101C300034B1012C2ED0022C56D0032C7ED17EE064
:101C4000362000F089FBC82000F070FB2A2000F04D
:101C500083FB002000F06AFB002000F067FB0020FF
:101C600000F064FB802000F061FB2B2000F074FB8F
:101C7000002000F05BFB322000F058FB002000F059
:101C800055FBB22000F052FB8020444908804449B3
:101C900008807FE0362000F05FFBA82000F046FBC4
:101CA0002A2000F059FB002000F040FB032000F048
:101CB0003DFB002000F03AFB822000F037FB2B2098
:101CC00000F04AFB002000F031FB022000F02EFB68
:101CD000002000F02BFB812000F028FB80202F4902
:101CE00008802F49088055E0362000F035FB082099
:101CF00000F01CFB2A2000F02FFB002000F016FB58
:101D0000022000F013FB002000F010FB812000F007
:101D10000DFB2B2000F020FB002000F007FB032030
:101D200000F004FB002000F001FB822000F0FEFA2E
:101D300080201A4908801A4908802BE029E03620C3
:101D400000F00AFB682000F0F1FA2A2000F004FB02
:101D5000002000F0EBFA032000F0E8FA002000F089
:101D6000E5FA822000F0E2FA2B2000F0F5FA0020DC
:101D700000F0DCFA002000F0D9FA002000F0D6FADA
:101D8000802000F0D3FA80200449088004490880AC
:101D900000E000BF00BF10BD4E0100204A0100203E
:101DA0004C01002003B52F48007800F0010060B11D
:101DB000BDF80200801C80B2ADF80200BDF8000042
:101DC000C01C80B2ADF800000BE0BDF80200C01CE2
:101DD00080B2ADF80200BDF80000801C80B2ADF802
:101DE00000002A2000F0B8FABDF80010081200F038
:101DF0009DFABDF80010C8B200F098FABDF80010C6
:101E0000BDF804201144491EC1F3072000F08EFAEA
:101E1000BDF80010BDF804201144491EC8B200F0FE
:101E200085FA2B2000F098FABDF80210081200F095
:101E30007DFABDF80210C8B200F078FABDF80210C1
:101E4000BDF806201144491EC1F3072000F06EFAC8
:101E5000BDF80210BDF806201144491EC8B200F0BA
:101E600065FA0CBD4E01002010B504464FF48050B9
:101E700008490860001108490860201200F0B8FF06
:101E8000E0B200F0B5FF4FF480500249091F08602E
:101E900010BD0000140C0140101401402DE9FF4357
:101EA00081B00D4616461F4620480068009000F09D
:101EB000C5FF0838BDF80410884206DB00F0B8FF03
:101EC0001038BDF80610884202DA05B0BDE8F0838C
:101ED000DDE90010FFF766FF2C2000F03DFA00243A
:101EE00020E0A5F1200004EB0010114911F800805A
:101EF0004FF0000911E008F0800018B13046FFF7FC
:101F0000B3FF02E03846FFF7AFFF4FEA48604FEA01
:101F1000106809F1010000F0FF09B9F1080FEADBD0
:101F2000601CC4B2102CDCDB00BFCEE708770008D1
:101F30001D5D00082DE9FF4782B00E461446984605
:101F4000DDF8389035460027BDF80A00ADF80600E8
:101F5000DEB94B46424630210298FFF79FFFBDF89D
:101F60000800083080B2ADF808001020ADF802007B
:101F7000601EC004000CADF800004A4600990298AB
:101F800000F046F806B0BDE8F08704E00A20B5FB93
:101F9000F0F5781CC7B2002DF8D1A74200DB274628
:101FA0003D461AE0BDF808203846791ECFB2C00081
:101FB0000838104480B2ADF804000A20B6FBF0F1F6
:101FC00000FB116000F1300A4B4642465146019831
:101FD000FFF764FF0A20B6FBF0F6002FE2D1A5421E
:101FE00014D0601BC004000CADF80000BDF8080060
:101FF000082101FB050080B2ADF808001020ADF803
:1020000002004A460099029800F002F800BFB9E7C2
:10201000F7B51446DDE90001FFF7C4FEBDF8040082
:10202000BDF8061000FB01F62C2000F095F9002504
:1020300003E02046FFF718FF6D1CB542F9D3FEBD43
:102040007FB50C4615461E4628E000F0F7FE08381E
:10205000BDF80010884208DA0020ADF80000BDF895
:102060000200103080B2ADF8020000F0E1FE10383E
:10207000BDF80210884204DA0020ADF80200ADF885
:102080000000217833462A460098FFF707FFBDF885
:102090000000083080B2ADF80000641C20780028F1
:1020A000D3D17FBD1CB500200190FFF793FD00F058
:1020B00029F9112000F050F9782002F0DFFDB1205D
:1020C00000F04AF9012000F031F92C2000F02EF93F
:1020D0002D2000F02BF9B22000F03EF9012000F095
:1020E00025F92C2000F022F92D2000F01FF9B32053
:1020F00000F032F9012000F019F92C2000F016F957
:102100002D2000F013F9012000F010F92C2000F030
:102110000DF92D2000F00AF9B42000F01DF9072078
:1021200000F004F9C02000F017F9A22000F0FEF83A
:10213000022000F0FBF8842000F0F8F8C12000F045
:102140000BF9C52000F0F2F8C22000F005F90A20D2
:1021500000F0ECF8002000F0E9F8C32000F0FCF8F3
:102160008A2000F0E3F82A2000F0E0F8C42000F014
:10217000F3F88A2000F0DAF8EE2000F0D7F8C52056
:1021800000F0EAF80E2000F0D1F8362000F0E4F874
:10219000C82000F0CBF8E02000F0DEF80F2000F0BF
:1021A000C5F81A2000F0C2F80F2000F0BFF8182080
:1021B00000F0BCF82F2000F0B9F8282000F0B6F8A5
:1021C000202000F0B3F8222000F0B0F81F2000F02B
:1021D000ADF81B2000F0AAF8232000F0A7F8372064
:1021E00000F0A4F8002000F0A1F8072000F09EF80D
:1021F000022000F09BF8102000F098F8E12000F099
:10220000ABF80F2000F092F81B2000F08FF80F20A1
:1022100000F08CF8172000F089F8332000F086F8E1
:102220002C2000F083F8292000F080F82E2000F008
:102230007DF8302000F07AF8302000F077F839206F
:1022400000F074F83F2000F071F8002000F06EF804
:10225000072000F06BF8032000F068F8102000F071
:1022600065F82A2000F078F8002000F05FF80020E0
:1022700000F05CF8002000F059F87F2000F056F8DC
:102280002B2000F069F8002000F050F8002000F04A
:102290004DF8002000F04AF89F2000F047F8F020A9
:1022A00000F05AF8012000F041F8F62000F054F850
:1022B000002000F03BF83A2000F04EF8052000F036
:1022C00035F8292000F048F82C2000F045F80B489C
:1022D0000078FFF7A9FC00F0B1FDADF8000000F0B8
:1022E000A7FDADF802000022DDE90010FFF790FE27
:1022F0004FF48040024908601CBD00004E010020E0
:10230000100C014010B54FF40070074908606420BC
:1023100002F0B4FC4FF400700349091F086032203A
:1023200002F0ACFC10BD00001414014010B50446CE
:102330004FF48050064908600011064908602046A5
:1023400000F056FD4FF480500149091F086010BD90
:10235000140C01401014014010B504464FF4805095
:1023600006490860001106490860204600F040FD5B
:102370004FF480500149091F086010BD140C014042
:102380001414014030B589B000240025134880683A
:10239000002312494968114A1268CDE901130092DD
:1023A00003900F4B1A46194604A802F055FD14225B
:1023B00004A90C48FDF7D8FE0A48007C012805D086
:1023C0000948007810B90948007828B90020054963
:1023D000086048608860C86009B030BD8C0100208A
:1023E00000007A44BC0100202A0000202B000020BD
:1023F00010B5642002F042FC01210020FFF734F800
:1024000002210020FFF730F803210020FFF72CF80D
:1024100004210020FFF728F84FF47A7002F02EFC18
:102420000023642201211846FEF750FF0023642296
:1024300002211846FEF74AFF0023642203211846B2
:10244000FEF744FF0023642204211846FEF73EFFF6
:102450000A2002F013FC062201210020FEF7C6FF2D
:10246000062202210020FEF7C1FF062203210020E0
:10247000FEF7BCFF062204210020FEF7B7FF4FF451
:10248000FA7002F0FBFB10BD10B51A48007C78BB57
:1024900018490868FEF723F804B2234642F2107286
:1024A00001210020FEF756FF12494868FEF717F891
:1024B00004B2234642F2107202210020FEF74AFFC6
:1024C0000C498868FEF70BF804B2234642F21072FA
:1024D00003210020FEF73EFF0649C868FDF7FFFF15
:1024E00004B2234642F2107204210020FEF732FFAC
:1024F00010BD0000BC01002010B51E48007818B9BE
:102500001D480078002834D100201C49086048602C
:102510008860C8600868FDF7E2FF04B2234642F213
:10252000107201210020FEF715FF14494868FDF7DD
:10253000D6FF04B2234642F2107202210020FEF7B9
:1025400009FF0E498868FDF7CAFF04B2234642F22C
:10255000107203210020FEF7FDFE0849C868FDF750
:10256000BEFF04B2234642F2107204210020FEF79F
:10257000F1FE10BD2A0000202B000020BC0100202D
:102580001FB510A103C9CDE90201052202A930201F
:1025900000F0F0FB05226946102000F0ADFB00249E
:1025A00006E01DF80400C22800D003E0601CC4B29D
:1025B000052CF6DB00BF052C02D1012004B010BDB4
:1025C0000020FBE7C2C2C2C2C200000010B500BFBB
:1025D000FFF7D6FF0128FBD110BD000010B5082180
:1025E0001348FFF7F4F9052212492A2000F0C2FB34
:1025F0000121212000F0E2FB0121222000F0DEFB7E
:102600007D21252000F0DAFB0421312000F0D6FBEB
:102610000F21262000F0D2FB0F21202000F0CEFB5E
:1026200008210348FFF7D5F90A2002F027FB10BD67
:10263000000801406F01002008B54FF4C06000F0B1
:102640009FF834208DF8000001208DF80100022051
:102650008DF8020001208DF80300684600F058F85C
:1026600036208DF8000001208DF8010000208DF843
:10267000020001208DF80300684600F049F825208B
:102680008DF8000000208DF8010002208DF8020076
:1026900001208DF80300684600F03AF814208DF808
:1026A000000000208DF801008DF8020001208DF857
:1026B0000300684600F02CF813208DF8000000207D
:1026C0008DF8010001208DF802008DF803006846A6
:1026D00000F01EF837208DF8000001208DF8010071
:1026E0008DF802008DF80300684600F011F808200C
:1026F0008DF8000000208DF8010003208DF8020005
:1027000001208DF80300684600F002F808BD0000C3
:1027100070B5002100230F22C47804B3154C24683F
:1027200004F4E064C4F5E064210AC1F10403CA4082
:10273000447804FA03F184781440214309010E4CD3
:102740000678A155047804F01F050124AC400578F3
:102750006D11AD0005F1E025C5F8004109E00478F0
:1027600004F01F050124AC40044D0678761145F8AD
:10277000264070BD0CED00E000E400E080E100E0E8
:1027800002490143024A1160704700000000FA0547
:102790000CED00E04948C06940F004004749C861B9
:1027A0000846806940F0080088614548006820F0CC
:1027B0008070434908600846006820F00070086097
:1027C0000846006820F0805008600846006820F045
:1027D000005008600846006840F0806008600846C5
:1027E000006820F0006008600846006840F0804003
:1027F00008600846006820F0004008600020314969
:1028000008804FF6FF70091D08802E482838008880
:1028100020F440702B49283908800846008820F0B1
:102820006000088027481038008820F00200254901
:10283000103908800846008820F400700880084697
:10284000008840F0010008800846008840F480704D
:1028500008801C480838008820F00200194908390F
:1028600008800846008820F02000088015481038AD
:10287000008840F080001349103908801148203842
:10288000008820F004000F4920390880084600889D
:1028900040F0010008800846008840F002000880EF
:1028A00000200849091F088006482838008840F0A1
:1028B00001000449283908807047000000100240D8
:1028C000000C0140280800404948806940F400504D
:1028D000474988610846806940F010008861454892
:1028E000006820F08070434908600846006820F0C6
:1028F000007008600846006820F0805008600846B4
:10290000006820F0005008600846006840F08060D1
:1029100008600846006820F000600860084600680B
:1029200040F0804008600846006820F000400860E1
:102930000020314908804FF6FF70091D08802E489D
:102940002838008820F440702B4928390880084630
:10295000008820F06000088027481038008820F0A8
:1029600002002549103908800846008820F40070CC
:1029700008800846008840F001000880084600886A
:1029800040F4807008801C480838008820F002005D
:102990001949083908800846008820F0200008807E
:1029A00015481038008840F080001349103908801D
:1029B00011482038008820F004000F492039088091
:1029C0000846008840F0010008800846008840F072
:1029D0000200088000200849091F0880064828389E
:1029E000008840F001000449283908807047000041
:1029F0000010024000100140283401400146002030
:102A0000034A506820F4404008435060704700007B
:102A10000010024029B1064AD2690243044BDA6130
:102A200004E0034AD2698243014BDA617047000037
:102A30000010024029B1064A12690243044B1A6190
:102A400004E0034A12698243014B1A617047000097
:102A50000010024029B1064A92690243044B9A6170
:102A600004E0034A92698243014B9A617047000077
:102A70000010024029B1064AD2680243044BDA60D2
:102A800004E0034AD2688243014BDA6070470000D9
:102A90000010024030B500210022002400232D4DFB
:102AA0006D6805F00C0121B1042905D0082923D156
:102AB00005E0294D056022E0274D05601FE0254D0A
:102AC0006D6805F47012234D6D6805F4803402259D
:102AD00005EB92421CB9214D554305600BE01D4D9D
:102AE0006D6805F400351DB11C4D5543056002E0CD
:102AF000194D5543056002E0174D056000BF00BF4A
:102B0000144D6D6805F0F0010909154D6B5C056801
:102B1000DD4045600F4D6D6805F4E061090A104D18
:102B20006B5C4568DD4085600A4D6D6805F4605159
:102B3000C90A0B4D6B5C4568DD40C560054D6D688D
:102B400005F44041890B074D6B5CC568B5FBF3F597
:102B5000056130BD0010024000127A0000093D00FE
:102B6000740100208401002021B1028842F040025B
:102B7000028004E002884FF6BF731A40028070475B
:102B80000246002013890B400BB1012000E0002019
:102B900070470146888970478181704710B50022CF
:102BA000028802F441520B884C8823438C882343CB
:102BB000CC8823430C8923434C8923438C892343AA
:102BC000CC8923431A430280838B4FF2FF74234046
:102BD00083830B8A038210BD00B589B001210420D4
:102BE000FFF738FF01210846FFF734FF01210803F2
:102BF000FFF730FFE020ADF80C0001208DF80E004B
:102C000018208DF80F0003A92B48FEF703FE1820AB
:102C1000ADF80C0001208DF80E0010208DF80F008B
:102C200003A92548FEF7F6FD0420ADF80C000120AD
:102C30008DF80E0048208DF80F0003A91E48FEF7FE
:102C4000E9FD02210020FEF7C5FD042001900020CF
:102C50008DF808000C208DF8090001208DF80A007D
:102C600001A8FEF763FD10211348FEF7B2FE002015
:102C7000ADF810004FF48270ADF812000020ADF8EE
:102C80001400ADF81600ADF818004FF40070ADF860
:102C90001A001020ADF81C000020ADF81E0007201F
:102CA000ADF8200004A90548FFF778FF012103488B
:102CB000FFF75AFF09B000BD000801400030014095
:102CC00010B5044600BF02210A48FFF759FF00284B
:102CD000F9D021460748FFF75FFF00BF01210548F3
:102CE000FFF74EFF0028F9D00248FFF752FFC0B2AD
:102CF00010BD0000003001402DE9F04107460D46AF
:102D0000164608210D48FEF762FE10210B48FEF71B
:102D10005EFE3846FFF7D4FF8046002405E0FF2022
:102D2000FFF7CEFF2855601CC4B2B442F7DB102178
:102D30000248FEF74EFE4046BDE8F0810008014023
:102D400070B5044608210A48FEF741FE10210848E4
:102D5000FEF73DFE2046FFF7B3FFFF20FFF7B0FF71
:102D6000054610210248FEF734FE284670BD0000DB
:102D7000000801402DE9F04107460C4615460821A0
:102D80000D48FEF724FE10210B48FEF720FE3846C2
:102D9000FFF796FF8046002605E014F8010BFFF7C9
:102DA0008FFF701CC6B2AE42F7DB10210248FEF75F
:102DB00010FE4046BDE8F0810008014070B50546B0
:102DC0000C4608210948FEF702FE10210748FEF7CD
:102DD000FEFD2846FFF774FF06462046FFF770FF0A
:102DE00010210248FEF7F5FD304670BD0008014095
:102DF0000021082117E000F0800222B14FF40042C8
:102E00000A4B1A6004E04FF40042084B1B1D1A6085
:102E10004FF40052054B1B1D1A601B1F1A6042061F
:102E2000100E4A1ED1B20029E5DC7047100C01409B
:102E300001480088704700004A01002001480088CE
:102E4000704700004C01002010B500F001F810BDE3
:102E50000CB50020019000903348006840F48030A9
:102E60003149086000BF3048006800F4003000902D
:102E70000198401C0190009818B90198B0F5A06F16
:102E8000F1D12948006800F4003010B10120009011
:102E900001E0002000900098012843D123480068F9
:102EA00040F01000214908600846006820F0030047
:102EB00008600846006840F0020008601A48406850
:102EC000194948600846406848600846406840F430
:102ED000806048600846406820F47C1048600846DE
:102EE000406840F4E81048600846006840F0807090
:102EF000086000BF0C48006800F000700028F9D09E
:102F00000948406820F003000749486008464068C7
:102F100040F00200486000BF0348406800F00C0029
:102F20000828F9D10CBD000000100240002002402A
:102F300010B5FFF7C9FCFFF72DFC00F059F800F0C1
:102F400083F84FF4E13000F00BFD4FF4E13000F076
:102F500019FCFDF7CFFDFEF73FFDFEF75FFDFDF726
:102F6000E1FEFEF781FDFFF767FB482001F066FEFA
:102F7000FFF798F8FFF73CFAFFF72EFEFFF726FB66
:102F8000FFF72CFB0021084602F024F910BD0000D9
:102F900010B51348006840F0010011490860084668
:102FA0004068104908400E494860084600680E49CC
:102FB00008400B4908600846006820F4802008603B
:102FC0000846406820F4FE0048604FF41F00886007
:102FD000FFF73AFF4FF000600449086010BD0000A1
:102FE000001002400000FFF8FFFFF6FE08ED00E0D1
:102FF00008B501214120FFF72DFDFEF7E1FB01217E
:103000000F48FEF793FC4FF4A060ADF800001820C5
:103010008DF8030003208DF8020069460948FEF789
:10302000F9FB4FF42060ADF8000018208DF8030084
:1030300003208DF8020069460248FEF7EBFB08BD4D
:10304000C00016000018014030B58BB00121C80245
:10305000FFF700FD00250024324800F00FF940F290
:10306000E730ADF824000420ADF820000020ADF8D2
:103070002200ADF826008DF8280008A9294800F0A4
:10308000C1FA7020ADF810000120ADF81200042044
:10309000ADF81400ADF816500020ADF81800ADF8EA
:1030A0001A000420ADF814008001ADF81C000020C7
:1030B000ADF81E0004A91B4800F0EEF908211948DC
:1030C00000F036FAADF8164004A9164800F03AFAB6
:1030D0000821144800F088FA0020ADF80000ADF88F
:1030E0000200ADF804000120ADF806000003ADF8C1
:1030F00008000020ADF80A004FF48040ADF80C0045
:103100006946084800F088F80121064800F078F880
:103110000121044800F096F80121024800F09EF8D1
:103120000BB030BD002C014010B50121274800F044
:1031300099F9002849D00121244800F080F824485A
:103140000068401C2249086022480078401C214940
:1031500008701F48006841F28831884235D31D4805
:103160000078052190FBF1F201FB120060B91848CC
:10317000006842F21071884206D91748007818B1E9
:10318000FFF700F9FFF780F9124800780A2190FB59
:10319000F1F201FB120068B90D48006842F21071AB
:1031A000884205D90C48007810B10C48007808B95D
:1031B000FFF7A2F90748007806480078642804DB86
:1031C0000448007800200349087010BD001000403A
:1031D0002C00002024000020250000202B000020CF
:1031E00010B50121054800F03DF928B1012103483F
:1031F00000F025F8FEF79EFC10BD00000014004012
:1032000021B1028842F08002028004E002884FF679
:103210007F731A40028070470A884B881A438B8854
:103220001A43CB881A430B891A434B891A438B895B
:103230001A43A0F844207047CA4302827047CA4329
:103240000282704721B1028842F00102028004E04C
:1032500002884FF6FE731A400280704731B1B0F811
:10326000442042F40042A0F8442005E0B0F8442095
:10327000C2F30E02A0F844207047000010B50446C7
:103280006848844208D10121C014FFF7F3FB0021F4
:10329000E014FFF7EFFBC4E0B4F1804F08D1012147
:1032A0000846FFF7C7FB00210120FFF7C3FBB8E08A
:1032B0005D48844208D101210220FFF7BBFB0021B9
:1032C0000220FFF7B7FBACE05848844208D1012147
:1032D0000420FFF7AFFB00210420FFF7ABFBA0E0C9
:1032E0005348844208D101210820FFF7A3FB0021A5
:1032F0000820FFF79FFB94E04E48844208D101214B
:103300001020FFF797FB00211020FFF793FB88E0C8
:103310004948844208D101212020FFF78BFB00217E
:103320002020FFF787FB7CE04448844208D101213C
:103330004014FFF79FFB00216014FFF79BFB70E038
:103340003F48844209D10121C804FFF793FB0021C3
:103350004FF40020FFF78EFB63E03A48844209D126
:1033600001210805FFF786FB00214FF48010FFF7CD
:1033700081FB56E03448844209D101214805FFF71A
:1033800079FB00214FF40010FFF774FB49E02F4850
:10339000844208D101214020FFF74CFB002140204E
:1033A000FFF748FB3DE02A48844208D101218020F4
:1033B000FFF740FB00218020FFF73CFB31E0254870
:1033C000844208D101218015FFF734FB0021A015AC
:1033D000FFF730FB25E02048844209D10121080491
:1033E000FFF748FB00214FF48030FFF743FB18E064
:1033F0001A48844209D101214804FFF73BFB002110
:103400004FF40030FFF736FB0BE01548844208D13B
:1034100001218804FFF72EFB00214FF48020FFF7E5
:1034200029FB10BD002C01400004004000080040B2
:10343000000C004000100040001400400034014027
:10344000004C014000500140005401400018004071
:10345000001C0040002000400040014000440140AA
:103460000048014030B50246002000230024158AA0
:1034700005EA0103958905EA010413B10CB10120A5
:1034800000E0002030BD1AB183890B43838102E044
:1034900083898B438381704770B500240022002309
:1034A000058C4FF6FE7635400584028C8388048BAC
:1034B0004FF68F752C40B51E2C400D882C43751E81
:1034C0002A400D892A434D882A43144DA8420BD027
:1034D000134DA84208D0134DA84205D0124DA84262
:1034E00002D0124DA84213D14FF6F7752A404D89EC
:1034F0002A434FF6FB752A408D882A434FF6FF6515
:103500002B404FF6FF552B408D892B43CD892B4304
:1035100083800483CD888586028470BD002C0140A1
:103520000034014000400140004401400048014097
:103530000A460021018B4FF6F773194011430183AE
:103540007047000070B5002400220023058C4FF660
:10355000EF7635400584028C8388048B48F6FF752E
:103560002C404FF6FF452C400D884FF6FF7606EABB
:1035700005252C434FF6DF752A400D8906EA05150F
:103580002A434D8806EA05152A43154DA84202D064
:10359000144DA8421DD14FF67F752A404D894FF634
:1035A000FF7606EA05152A434FF6BF752A408D8837
:1035B00006EA05152A434FF6FF352B404FF2FF75FB
:1035C0002B408D8906EA85052B43CD8906EA8505C2
:1035D0002B4383800483CD880587028470BD00005F
:1035E000002C0140003401400A460021018B4FF2BB
:1035F000FF7319404FF6FF7303EA02231943018357
:1036000070470000002202881D4B98420ED01D4BCF
:1036100098420BD0B0F1804F08D01B4B984205D098
:103620001A4B984202D01A4B984204D14FF68F732E
:103630001A404B881A43174B984207D0164B9842B2
:1036400004D04FF6FF431A40CB881A4302808B8880
:1036500083850B8803850A4B98420BD0094B98420F
:1036600008D00E4B984205D00D4B984202D00D4B1E
:10367000984201D10B7A03860123838270470000B0
:10368000002C0140003401400004004000080040CC
:10369000000C0040001000400014004000400140B9
:1036A000004401400048014010B540F225512E4829
:1036B00000F0C9F9012855D140F225512A4800F0FF
:1036C0009AF9294800F07AFA2849087028480078C1
:1036D00020B1012813D002283FD129E023480078E7
:1036E000452808D122480078401C21490870002054
:1036F0002049087002E000201D49087031E01B4895
:1037000000781C490978C1F103011B4A505419483B
:103710000078401C1749087008460078042806DB2A
:103720000020087012480078401C1149087018E009
:103730000E480078532804D10F4800680F490860EC
:1037400007E00A480078442803D10B4800680C4978
:10375000086000200649087003E000200449087052
:1037600000BF00BF10BD0000004C0040340000202E
:103770003C0000203D000020380000200000002018
:103780000400002010B586B0044601211020FFF788
:1037900061F90121C804FFF73DF94FF48060ADF8ED
:1037A000140018208DF8170003208DF8160005A9C5
:1037B0001548FEF72FF84FF40060ADF81400042010
:1037C0008DF8170005A91048FEF724F80194002091
:1037D000ADF80800ADF80A00ADF80C00ADF8100027
:1037E0000C20ADF80E0001A9084800F07BF9012279
:1037F00040F22551054800F050F90121034800F03E
:1038000009F906B010BD000000100140004C004056
:1038100010B508214B4800F009F958B10821494872
:1038200000F0E0F8474800F0C9F900204649087068
:103830004649087040F22551424800F004F9012839
:103840007FD140F225513F4800F0D5F83D4800F0C7
:10385000B5F93F4908703D48007805286CD2DFE88B
:1038600000F0031429404E00394800780D2808D193
:1038700036480078401C35490870012032490870EC
:1038800002E00020314908705AE0314800780A28E7
:1038900008D100202F4908702C480078401C2B4983
:1038A000087006E02A4800780D2802D00020274939
:1038B000087045E0264800782749264A127888543F
:1038C00024480078401C23490870084600781828CE
:1038D00006DB002008701D480078401C1B4908705A
:1038E0002EE01B4800780A2805D118480078401CB3
:1038F0001649087002E000201449087020E01448BE
:1039000000780D2812D114480068144988601248C4
:103910004068C8601048806808610F48C068086047
:103920000D48006948600C4840694861002007491B
:10393000087005E005E0FFE700200449087000BFBB
:1039400000BF10BD00380140250000203F000020CE
:103950003E00002040000020A40100208C01002037
:1039600010B586B00446012144F20400FFF772F856
:103970004FF40070ADF8140018208DF817000320E4
:103980008DF8160005A91548FDF744FF4FF4806037
:10399000ADF8140004208DF8170005A90F48FDF7B5
:1039A00039FF01940020ADF80800ADF80A00ADF829
:1039B0000C00ADF810000C20ADF80E0001A908486D
:1039C00000F090F8012240F22551054800F065F81A
:1039D0000121034800F01EF806B010BD00080140A8
:1039E0000038014001F40072B2F5007F00D100BF41
:1039F000CA430280704710B50022002340F66A14C3
:103A0000A14200D100BF0A1201249440A3B2DC43BA
:103A1000048010BD21B1828942F40052828104E009
:103A200082894DF6FF731A4082817047024600205A
:103A3000B1F5007F00D100BF13880B400BB101200E
:103A400000E00020704770B50246002400230025E6
:103A5000002040F66A16B14200D100BFC1F3421502
:103A600001F01F03012606FA03F3012D02D1968906
:103A7000334006E0022D02D1168A334001E0968AD7
:103A800033400C12012606FA04F41688344013B1B0
:103A90000CB1012000E0002070BDF0B50346002409
:103AA00000260025002040F66A17B94200D100BF69
:103AB0001846C1F3421401F01F06012707FA06F564
:103AC000012C01D10C3004E0022C01D1103000E0B7
:103AD00014301AB107682F43076002E00768AF434C
:103AE0000760F0BD2DE9F04786B005460E4600247C
:103AF000A24600BFA1460027B08900B100BF2F46F3
:103B00002C8A4CF6FF700440F08804432C82AC8968
:103B10004EF6F3100440B088318908437189084398
:103B20000443AC81AC8A4FF6FF400440B0890443A3
:103B3000AC8201A8FEF7AEFF1F48874202D1DDF834
:103B400010A001E0DDF80CA0A88900F4004040B10D
:103B50000AEBCA0000EB0A1031684900B0FBF1F82B
:103B600007E00AEBCA0000EB0A1031688900B0FBDD
:103B7000F1F86420B8FBF0F004012009642101FB96
:103B80001089A88900F4004040B1322000EBC90040
:103B9000B0FBF1F000F00700044308E0322000EB36
:103BA00009106421B0FBF1F000F00F0004432C81F8
:103BB00006B0BDE8F0870000003801400146888863
:103BC000C0F308007047000010B501210548FDF75B
:103BD000B7F930B101210348FDF750F8012002493F
:103BE000087010BD006400402C01002000B585B0B5
:103BF00002217F48FDF7A4F9002839D002217C4832
:103C0000FDF73CF86A4600217948FDF7E7FA9DF890
:103C1000080000282CD19DF808000028FAD19DF852
:103C20000A000828F6D100981B2822D19DF80C0024
:103C30009DF80B1040EA012000B26E4908809DF803
:103C40000E109DF80D0041EA002000B26A4908807C
:103C50009DF80F0001069DF8100041EA00419DF813
:103C6000110041EA00209DF81210084363490860E2
:103C7000BCE000982B2822D19DF80C009DF80B1079
:103C800040EA012000B25B4948809DF80E109DF883
:103C90000D0041EA002000B2574948809DF80F000E
:103CA00001069DF8100041EA00419DF8110041EA2B
:103CB00000209DF8121008435049486096E0009893
:103CC0003B2822D19DF80C009DF80B1040EA012002
:103CD00000B2484988809DF80E109DF80D0041EA19
:103CE000002000B2444988809DF80F0001069DF82D
:103CF000100041EA00419DF8110041EA00209DF8C2
:103D0000121008433D49886070E000984B2822D18A
:103D10009DF80C009DF80B1040EA012000B23549D7
:103D2000C8809DF80E109DF80D0041EA002000B2F9
:103D30003149C8809DF80F0001069DF8100041EA46
:103D400000419DF8110041EA00209DF8121008433F
:103D50002A49C8604AE000981F2803D10120284959
:103D6000087043E000982F2803D1012024494870AF
:103D70003CE000983F2803D101202149887035E0BC
:103D800000984F2803D101201D49C8702EE00098EB
:103D90001C2808D19DF80B001A4908709DF80C00EA
:103DA0001949087022E000982C2808D19DF80B00D2
:103DB000144948709DF80C001349487016E00098AB
:103DC0003C2808D19DF80B000E4988709DF80C0026
:103DD0000D4988700AE000984C2807D19DF80B0027
:103DE0000849C8709DF80C000749C87005B000BDAF
:103DF000006400402E01002036010020D001002088
:103E00003E0100204201002046010020490050EA06
:103E1000C12018BF04204A0D18BF40F0010040F235
:103E2000FF72B2EB515F08BF40F00200012808BFEB
:103E3000052070472DE9F74F144694B00021C4E9DE
:103E400002111599079121F00045C9498D4206DC00
:103E50001599C4E9000117B00020BDE8F08FC549ED
:103E6000DFF814A3A9423CDD0799C44E0029C44FD2
:103E7000C44A1599534619DDFCF7DBFC554506D0BD
:103E8000C14AC24BFCF7D5FCC4E900010AE04FF07F
:103E9000D352BE4BFCF7CDFC32463B46FCF7C9FC87
:103EA000C4E9000117B00120BDE8F08FFCF720FC49
:103EB000554506D0B44AB54BFCF71AFCC4E90001DD
:103EC0000AE04FF0D352B14BFCF712FC32463B46AE
:103ED000FCF70EFCC4E9000117B04FF0FF30BDE85D
:103EE000F08FAB49A942159978DB21F00041834658
:103EF0008846A84AA84BFCF711FA0022A74BFCF70A
:103F0000F7FBFCF765FD0990FCF744FD06460F46FC
:103F10009C4A5346FCF702FA43465A46FCF78CFC8F
:103F200080468A46984A994B30463946FCF7F6F95E
:103F30002A0D01250B9242465346FCF77DFC032DCA
:103F4000C4E9000139D00B98C1F30A51401A05EBBE
:103F500045111139814230DA9148C346784400EB6B
:103F60000510CDF80CA00C90D0E90023304639465E
:103F7000FCF7D4F902460B46049106905846039983
:103F8000FCF757FC80468A4602460B465846039982
:103F9000FCF74FFC049B069AFCF74BFC83460C98FD
:103FA00003913946D0E902233046FCF7B7F95A4667
:103FB000039BFCF73EFC6D1CBDE707980028A2BFE1
:103FC000099817B0BDE8F08F616881F00041616029
:103FD000099817B04042BDE8F08FFFE78446159876
:103FE000C1F31301C0F30A50A0F2F5304FEA601894
:103FF00000F01F06C6F120001390002006900790E5
:1040000041F4801E05206D4676B1664A08EB00013A
:104010007A4452F8213002EB8101B3404A68139987
:1040200022FA01F1194305E05F4908EB00027944E7
:1040300051F82210A1FB0E27A1FB0C131A449A423F
:1040400034BF0123002303EB070A05EB8003D3E908
:1040500001B70F448F4234BF0121002193448B44A8
:1040600011B1934502D903E0934501D2012100E04B
:104070000021C3E901B7514445F82010011EA0F109
:104080000100C1DC0298059F00F10050800F1290E2
:104090000298DDE903568000FCF77CFC8346284645
:1040A0000D91FCF788FC6FF01D02FCF75CFCCDE97C
:1040B0000E013046FCF77FFC6FF03D02FCF753FC2D
:1040C00080468A463846FCF776FC6FF05D02FCF7C6
:1040D0004AFC0746424653461191FCF709FBDDE9CD
:1040E0000E23FCF705FB5A460D9BFCF701FB002550
:1040F0000E465A4628460D9BFCF79BFBDDE90E2336
:10410000FCF797FB42465346FCF793FB3A46119B5C
:10411000FCF792FBDFF898A0244A5346FCF7FEF820
:1041200007468846234A244B31462846FCF7F6F8D2
:104130003A464346FCF7DCFA074688464FF0A84269
:10414000534631462846FCF7E9F83A464346FCF721
:10415000CFFA159A12F0004F04D0129A81F0004164
:1041600052421292C4E90001129817B0BDE8F08FD4
:10417000FB21E93F7CD90240FB21F93F7370032EFC
:104180008A19A33B000040543163621A61B4D03DE8
:10419000FB21394183C8C96D305FE43F0000E03F37
:1041A000903800000C380000EE370000182D445401
:1041B000FB21F93D3326A611460B113C2DE9FF4D9D
:1041C00021F0004807460C46B8F1795F08DAFCF7A1
:1041D000FFFB002801BF0020324904B0BDE8F08D8C
:1041E0003A46234610461946FCF798F8054602461B
:1041F0002D480E460B460621784400F05DF82A460D
:104200003346FCF78BF8DDE9022382468B463846BD
:104210002146FCF783F804460F4652465B46284683
:104220003146FCF77BF822463B46FCF702FB07468B
:104230008A464FF0FF3228463146FCF794FB1B4A72
:1042400090450ADA3A465346FCF7F3FA04B00022E6
:10425000BDE8F04D134BFCF7EFBA154A4245A8BF35
:10426000A8F500154FF00004B8BF124D22462B46AA
:10427000FCF7DFFA0646884622462B46002009490D
:10428000FCF7D7FA04460D463A46534630464146B7
:10429000FCF7CFFA04B022462B46BDE8F04DFCF700
:1042A000CBBA00000000F03FBC3500003333D33FF1
:1042B0000000E93F0000D23F2DE9F0414F1E00EB26
:1042C000C7010446D1E9000115461E4637F0060233
:1042D0000DD02A463346FCF721F87F1E04EBC703B6
:1042E000D3E90023FCF704FA37F00602F1D1022FDC
:1042F00025D0042F13D0062F18BFBDE8F0812A4621
:104300003346FCF70BF8D4E90A23FCF7F1F92A4607
:104310003346FCF703F8D4E90823FCF7E9F92A4609
:104320003346FBF7FBFFD4E90623FCF7E1F92A4605
:104330003346FBF7F3FFD4E90423FCF7D9F92A4607
:104340003346FBF7EBFFD4E90223FCF7D1F92A4609
:104350003346FBF7E3FFD4E90023BDE8F041FCF767
:10436000C7B900002DE9FF4D054621F0004084B09B
:104370000C46B0F1795F0BDA2846FFF747FD0428B9
:1043800008BF00F071F8284608B02146BDE8F08D5E
:104390002A460B461046FBF7C1FF06460F462A4643
:1043A0002346FBF7BBFF804626488A4632463B46FB
:1043B00005217844FFF780FF83461098029160B38F
:1043C000214A224B40465146FBF7A8FFCDE90001A8
:1043D0005A4640465146029BFBF7A0FF824688465C
:1043E000DDE906014FF0FF32FCF7BDFA52464346C5
:1043F000FCF71FFA32463B46FBF790FFDDE9062348
:10440000FCF717FADDE90023FCF713FA08B02A4697
:104410002346BDE8F04DFCF70FBA0B465A4630462E
:104420003946FBF77BFF084A084BFCF761F9424627
:104430005346FBF773FF08B02A462346BDE8F04D0C
:10444000FCF756B902350000495555555555C5BFBD
:104450000122FCF788BAFCF74BB90022134610463C
:104460001146FBF7CDBF0000024A00201107FCF700
:104470007ABA000001FDFFFF02E008C8121F08C160
:10448000002AFAD170477047002001E001C1121FD5
:10449000002AFBD170470000014908607047000006
:1044A000880100202DE9F84F04460D4621F0004018
:1044B00000917349814211DC7249884201DC06D1C6
:1044C0002CB120462946BDE8F84FFFF7C1BF6E4822
:1044D000002DCCBF6D496E49BDE8F88F6D49814212
:1044E00011DD6D498142D8BF4FF0FF366DDD2046AA
:1044F0002946FFF78BFC042808BFFFF7B5FF2046CD
:104500002946BDE8F88F6549654F25F00045814291
:1045100033DD6449814219DD002632464FF0804385
:1045200020462946FCF7E4F880468A4601222046C8
:104530002946FCF718FA00223B46FCF77AF9424676
:104540005346FBF75DFF04460D463EE00126002280
:10455000BA463B4620462946FCF7CAF880460F4635
:104560000022534620462946FCF763F942463B4663
:10457000FBF746FF04460D4627E04B4981421BDD11
:10458000DFF828A102260022534620462946FBF7E1
:10459000C5FE00223B46FCF7ABF880460F460022E2
:1045A000534620462946FCF744F942463B46FBF772
:1045B00027FF04460D4608E0032622462B4600202E
:1045C0003B49FBF71DFF04460D4622462B4610468D
:1045D0001946FBF7A3FE8B46824602460B46FBF7C5
:1045E0009DFE07460246334888460B46062178441E
:1045F000FFF762FE52465B46FBF790FE82462E486E
:104600008B463A46434605217844FFF755FE3A4625
:104610004346FBF783FE02460B46002E50465946A2
:104620000CDAFCF765F822462B46FBF777FE01B063
:1046300022462B46BDE8F04FFCF7FEB8FCF758F8D1
:1046400022462B46FBF76AFE1C4A7A4402EBC6035D
:10465000D3E90023FCF7EDF822462B46FCF7E9F8F6
:10466000174A7A4402EBC603D3E90023FCF7E4F8C7
:10467000009A002AB8BF81F00041BDE8F88F000021
:10468000000010440000F07F182D4454FB21F93F36
:10469000FB21F9BF0000DC3F0000203E0000F33F9B
:1046A0000000F03F0000E63F008003400000F83FBC
:1046B0000000F0BF9631000054310000F2300000DD
:1046C000BA3000002DE9F04D9446CCF1000423F0FF
:1046D00000464CEA0404524F46EAD4749A4688468F
:1046E00021F00042BC4206D8454240EA050442EAB5
:1046F000D474BC4204D9BDE8F04D6246FFF7ABBEAE
:10470000AAF14055A5F17F6555EA0C040BD00224AF
:1047100004EAAA74434DDFF810E144EAD87452EA7F
:10472000000B04D00CE0BDE8F04DFFF7BBBE002C41
:1047300014BF012CBDE8F08D022C30D0032C32D0F8
:1047400056EA0C0B0AD0BE4220D1BA4209D126F05B
:10475000804622F080423346114617E000291ADBDA
:1047600025E0DFF8C8B0FB44002C04BFDBE9000102
:10477000BDE8F08D012C02BFDBE9000181F00041B2
:10478000BDE8F08D022C0AD0032C0CD0BA4212D115
:10479000B8F1000F0BDA23482549BDE8F08D284613
:1047A0002449BDE8F08D28467146BDE8F08D1D48CE
:1047B0002149BDE8F08D921B12153C2AC4BF19484F
:1047C0001D490EDCBAF1000FBEBF12F13C0F0020F4
:1047D000014606DB6246FBF713FE21F00041FFF7BE
:1047E00061FE002C08BFBDE8F08D012C04BF81F0F4
:1047F0000041BDE8F08D114A114B022C07D0FCF7A7
:1048000018F82A46BDE8F04D0A4BFCF712B8FCF741
:1048100010F82A46BDE8F04D064BFCF70DB8000035
:104820000000F07F182D4454FB2109C07E300000A9
:10483000FB21F9BFFB210940FB21F93F075C143341
:1048400026A6A13C2DE9FF4F89B014469946204683
:104850001699FBF7EDFC044627492046FBF720FD9F
:1048600026490190FBF7EAFC8346FBF751FE074619
:1048700000F046F90546FBF777FE82460A99FBF7FA
:10488000DDFC039021461E48FBF7D2FC1A4900903C
:10489000FBF706FD19490190FBF7D0FC8346FBF7B7
:1048A00037FE054600F02CF90746FBF75DFE824611
:1048B0000A99FBF7C3FC029049460298FBF7B8FC43
:1048C000049049460298FBF761FC0690494603981C
:1048D000FBF7AEFC059049460398FBF757FC0790A1
:1048E00000208DF82000142204A90998FBF73CFC55
:1048F0000DB0BDE8F08F000000003443D00F4940F8
:104900000000B4422DE9FF4F97B00F4690469946FC
:10491000DDF890A0DDE92510FBF738FC0990FBF7E6
:10492000F7FD684A684BCDE90A01FBF7F7FCCDE9D2
:104930000C01FBF719FE1490DDE92510FBF778FC5C
:104940000990FBF7E5FD5F4A5F4BCDE90A01FBF7F4
:10495000E5FCCDE90C01FBF707FE139013980090DE
:104960005A48149B02685A480168404600F0A4F96E
:104970000546294657480068FBF708FC554908607A
:10498000554801682846FBF753FC169052480560CD
:1049900000201699FBF752FC0D904E48016800204C
:1049A000FBF74CFC29460B904FF07E50FBF746FC82
:1049B0000A900B99FBF7EAFB0C900D99FBF7E6FBCD
:1049C000834646495846FBF7F5FD02D2DFF80CB1A5
:1049D00006E043495846FBF7E3FD01D2DFF800B19A
:1049E00089F0004051460D90FBF7D0FB044621466C
:1049F0003C480068FBF7CAFB3A4908603A4801683E
:104A00002046FBF715FC15903748046000201599E7
:104A1000FBF714FC0D90334801680020FBF70EFCF7
:104A200021460B903148FBF709FC0A900B99FBF7E4
:104A3000ADFB0C900D99FBF7A9FB06462C493046BF
:104A4000FBF7B8FD01D22A4E05E02A493046FBF7B4
:104A5000A7FD00D2274E59464046FBF797FB264953
:104A600008905846FBF71CFC24490090FBF7E6FB36
:104A70000190FBF74DFDCDE9020100F041F8CDE9D1
:104A80000401FBF771FD014606903846FBF708FC70
:104A90003346CDF800A00790014609A8089AFFF711
:104AA000D1FE142209A90EA8FBF75EFB00208DF8A9
:104AB000480014220EA91798FBF756FB1BB0BDE85F
:104AC000F08F0000DF27DC659EA0E63F4800002055
:104AD000440000204C00002054000020000034421C
:104AE000000034C250000020580000200000204187
:104AF00000007A4400007AC400003443D00F4940DB
:104B000000B5244B21F0004287B09A42DCBF00225E
:104B1000134629DD204B9A4208D140B94FF00100DD
:104B2000FFF7BAFCFFF799FC07B000BD03DBFFF706
:104B30008FFC07B000BD02AAFFF77CF910F003015B
:104B400004BF0DF1080C9CE80F000DD001200129D5
:104B50000ED0022914D00DF1080C00909CE80F0033
:104B6000FFF700FC07B000BDFFF728FB07B000BD52
:104B70000DF1080C00909CE80F00FFF7F3FB05E037
:104B80000DF1080C9CE80F00FFF718FB07B081F04F
:104B9000004100BDFB21E93F0000F07F08B546E081
:104BA0009DF80100E8B99DF80000052817D2DFE85C
:104BB00000F00B0F07031300042000F0DDFC0FE0F2
:104BC000052000F0D9FC0BE0012000F069FC07E0B3
:104BD000002000F065FC03E000F042FC00E000BFB4
:104BE00025E09DF80100022821D19DF8000005284C
:104BF0001BD2DFE800F00B0F07031300062000F0C4
:104C0000BBFC13E0072000F0B7FC0FE0032000F02E
:104C100047FC0BE0022000F043FC07E0072000F017
:104C200089FC072000F066FB00E000BF00BF68467B
:104C300000F0A6F80028B3D108BD00004FF0E02135
:104C4000096921F004014FF0E0221161C21700EB65
:104C50005272C2F3C702074B1A701946097801EB6A
:104C60004102C2EBC1114FF6FF7202EAC101024AD2
:104C7000118070476E0000207000002001460D4A30
:104C800012884A434FF0E0235A6100229A610122C0
:104C90001A6100BF4FF0E022106900F001021AB162
:104CA00000F48032002AF5D000224FF0E0231A6190
:104CB0009A617047700000202DE9FF4F85B00C46C7
:104CC00015461E4629490598FBF760FA05902849C4
:104CD0000598FBF76FFC04D226490598FBF7A8FA64
:104CE000059025490598FBF75BFC04D221490598FE
:104CF000FBF74CFA05901E490598FBF7D1FA0746D9
:104D00001E49FBF79BFA05900598FBF701FCCDE9DE
:104D10000001FFF7F5FE0746FBF726FC82460598E3
:104D2000FBF7F6FBCDE9000100F06EFA0746FBF752
:104D30001BFC834631462046FBF77AFA039028464F
:104D40001299FBF775FA029058460299FBF776FA2A
:104D5000074650460399FBF771FA80463946FBF740
:104D600015FA8146484609B0BDE8F08F0000B4420C
:104D7000000034430000B443000034C3D00F494066
:104D800001461648007808B9002070471448154BB2
:104D90001B7810F8130008701148124B1B7800EBB9
:104DA0004300407848700F480078401C0D4B187045
:104DB00018460078142801DB002018700A48027891
:104DC00008480078904203D10020044B187002E09C
:104DD0000120024B18700120D7E700005C01002081
:104DE000E00100205A0100205B010020002805DCC2
:104DF0000A4A52F8202012780A600EE0062805DCE4
:104E0000064A52F8202012880A6006E0062804DCD0
:104E1000024A52F8202012680A6070477800002089
:104E200010B50446054830F814100548FCF7C6FDD7
:104E300008B9002010BD0120FCE70000500100204F
:104E400000140140FEF774F804E0072000F052FA65
:104E5000FFF7A4FEF9E700002DE9FF4F97B01546D4
:104E60001E46DDF89C90DDE924780020109039463C
:104E70004046FBF78BF90590FBF74AFB9A4A9B4BA0
:104E8000CDE90601FBF74AFACDE90801FBF76CFB17
:104E90000C9039464046FBF7CBF90590FBF738FB01
:104EA000914A924BCDE90601FBF738FACDE90801AA
:104EB000FBF75AFB0B9028460C99FBF7B9F90190C8
:104EC000FBF726FBCDE9040130460B99FBF7B0F95F
:104ED0000190FBF71DFBCDE90201DDE90423FFF79B
:104EE000F1FBCDE90601FBF73FFB81490990FBF798
:104EF000D7F980490A90FBF7A1F982467E480068FD
:104F00007E4908607E495046FBF792F90A900B985B
:104F10000090324629460C9B0A98FFF7CDFE764951
:104F200008607848007810B30846006880F00040B8
:104F30000890724801680898FBF728F94FF07E51F5
:104F40000990FBF77BF970490A90FBF7A9F98346B2
:104F500059464FF07C50FBF771F959460990FBF721
:104F60006DF96A490A90FBF79BF9109004E0012063
:104F7000644908700020109065480078C8B91098FE
:104F8000FBF7C6FACDE908015B480068FBF7C0FAF9
:104F900021F00041CDE90601DDE90823FBF7CCFA59
:104FA00007D801205A49087000205A4908605A4918
:104FB00008605748007800287DD04F480068FBF70C
:104FC000A7FA21F00041CDE90601FBF7CDFA0A90DE
:104FD00049480068FBF79CFA21F0004100224FF09D
:104FE0008043CDE90001FBF799F900224B4BCDE955
:104FF0000201FBF793F9CDE9040100F055F9CDE981
:105000000601FBF7B1FA08903B4801680898FBF7E6
:1050100015F909900A99FBF743F90F9059460F9833
:10502000FBF706F9044621463A480068FBF7AEF85C
:1050300038490860384801682046FBF7F9F80E90B7
:105040003548046000200E99FBF7F8F80A903148C3
:1050500001680020FBF7F2F8214608904FF07E50DF
:10506000FBF7ECF807900899FBF790F809900A997C
:10507000FBF78CF80D900D990F98FBF787F80F90C0
:1050800000208DF85400CDE90097CDF808805246F5
:1050900006A8269B0F99FFF735FC142206A911A834
:1050A000FBF762F8142211A91798FBF75DF81BB003
:1050B000BDE8F08FFFE700208DF85400CDE90097A0
:1050C000CDF80880524606A8269B1899FFF71AFCCF
:1050D000142206A911A8FBF747F8142211A9179862
:1050E000FBF742F800BFE2E7DF27DC659EA0E63F62
:1050F000D00F4940000034435C00002068000020CD
:105100000000B4426D0000200AD7A33B0000C84253
:105110006C00002060000020640000200000594066
:10512000002804DC0E4B53F8203019700CE00628E0
:1051300004DC0B4B53F82030198005E0062803DC13
:10514000074A52F82020116000EB8002054B43F81B
:10515000221000EB800203EB8202516070470000D6
:10516000780000209400002001B516490978022932
:1051700000D108BD9DF80010134A144B1B7802F8AB
:1051800013109DF80110114B1B7802EB4302517074
:105190000E490978491C0D4A1170114609781429E5
:1051A00001DB002111700949087809490978884212
:1051B00003D10221034A117002E00121014A11705A
:1051C00000BFD6E75C010020E00100205B01002069
:1051D0005A010020064A1060064A11600022064B60
:1051E0001A60064B1A60064B1A60064B1A6070472D
:1051F0004400002048000020500000204C00002007
:10520000540000205800002000B5254B21F000423A
:1052100087B09A4203DC0022134600922BE0214B18
:105220009A4208D140B94FF00100FFF735F9FFF776
:1052300014F907B000BD03DBFFF70AF907B000BDA2
:1052400002AAFEF7F7FD10F003014FF001000DD0A8
:10525000012914D002291AD00DF1080C9CE80F0086
:10526000FEF7ACFF07B081F0004100BD0DF1080C66
:1052700000909CE80F00FFF775F807B000BD0DF136
:10528000080C9CE80F00FEF799FF07B000BD0DF178
:10529000080C00909CE80F00FFF764F8E2E70000BC
:1052A000FB21E93F0000F07F2DE9F04106460F4663
:1052B000FBF7C5FA041E0D4618BF0120284320F055
:1052C0000040C0F17F6000F1E040C00F0ED0301C04
:1052D00018BF0120384320F00040C0F17F6000F18A
:1052E000E040C00F04BF0120FFF7D6F82046294652
:1052F000BDE8F081F0B587B004460025072C01D148
:105300000625002400BF3C480078844215D104EBF8
:1053100084003A4951F8200004EB8401374A02EB3B
:1053200081014968884203D11F274FF6FF7617E0B5
:105330004FF4FC674FF6FF7612E004EB84002F4930
:1053400051F8200004EB84012C4A02EB81014968EA
:10535000884202D11F27002602E04FF4FC67002696
:1053600004EB8400254A009652F8201004EB8400D8
:1053700002EB800000693B4604220190FCF7DAFD55
:10538000601CC4B2281EA5F10101CDB2BBD10690AC
:1053900000234FF6E0721AA10698FCF751FE1A4856
:1053A0000068059000234FF6E07218A10598FCF7FD
:1053B00047FE1548001D0068049000234FF6E07278
:1053C00014A10498FCF73CFE0F48083000680390D5
:1053D00000234FF6E07211A10398FCF731FE0A4852
:1053E0000C300068029000234FF6E0720DA1029885
:1053F000FCF726FE07B0F0BD20010020940000203D
:1054000053706453657400000C7700085370644354
:10541000757200004D6F746F7250000053657276A4
:105420006F440000536572766F50000008B500238A
:1054300011E069461846FFF7D9FC03EB8301074AE0
:10544000009842F8210003EB830102EB81010098F0
:105450004860581CC3B2072BEBDB08BD940000204A
:1054600010B50D48007800EB80000C4951F8200081
:105470000949097801EB8101084A02EB8101496879
:10548000884203D00448007800F054F802480078BD
:10549000FFF730FF10BD0000200100209400002025
:1054A00070B504462248057834B1012C10D0022C86
:1054B0001AD0032C30D123E01D480078401C1C4931
:1054C000087008460078072801DB0020087024E0F7
:1054D00017480078401E16490870084600780728CB
:1054E00001DB0620087018E011480078801C104984
:1054F000087008460078072801DB002008700CE0DF
:105500000B480078801E0A49087008460078072872
:1055100001DB0620087000E070BD00BF2846FFF7E1
:10552000E9FE03480078FFF7E5FE00BFF4E700005E
:105530002001002070B504460025072C01D1062566
:10554000002400BF04EB84000A4901EB8000466898
:1055500004EB84000A4652F820102046FFF7E0FDD5
:10556000601CC4B2281EA5F10101CDB2EAD1012010
:1055700070BD00009400002010B50446042C06D035
:10558000052C34D0062C62D0072C7DD192E06548E2
:10559000007800EB8000644951F8200061490978E7
:1055A00001EB8101604A02EB8101C96888420ED299
:1055B0005C48007800EB8000114651F82000401C48
:1055C0005849097801EB810142F821000EE0554865
:1055D000007800EB8000544901EB8000806851495D
:1055E000097801EB8101504A42F8210094E04D48CE
:1055F000007800EB80004C4951F8200049490978B7
:1056000001EB8101484A02EB8101896888420ED989
:105610004448007800EB8000114651F82000401EFD
:105620004049097801EB810142F821000EE03D4834
:10563000007800EB80003C4901EB8000C0683949EC
:10564000097801EB8101384A42F8210064E03548CD
:10565000007800EB8000344901EB8000C0683149DC
:10566000097801EB8101304A52F82110401A0A28CA
:1056700010D92C48007800EB8000114651F820002A
:105680000A302849097800E045E001EB810142F841
:1056900021000EE02348007800EB8000224901EB56
:1056A000800080681F49097801EB81011E4A42F899
:1056B000210031E01B48007800EB80001A4951F8C6
:1056C00020001849097801EB8101174A02EB81019A
:1056D0008968401A0A280ED91248007800EB800029
:1056E000114651F820000A380E49097801EB810172
:1056F00042F821000EE00B48007800EB80000A49D8
:1057000001EB8000C0680749097801EB8101064A76
:1057100042F8210000E000BF00BF02480078FFF718
:10572000E9FD10BD200100209400002000000000D1
:105730000000000000000000000000000010101039
:1057400010101010101000001010000000006C6C01
:105750002424000000000100000000000024242494
:1057600024FE48484848FC909090900000103C541B
:105770009290503814121292547810000000225C5B
:1057800094A8481010242A52548800000000304881
:105790004850206E54948C888A7400000000303089
:1057A00010100000000000000000000000040810BD
:1057B000102020202020201010080400008040200D
:1057C0002010101010101020204080000000000059
:1057D0001054381038541000000000000000001071
:1057E000101010FE1010101000000000000000004B
:1057F0000000000000000000101020000000000069
:10580000000000FE0000000000000000000000009A
:105810000000000000000000101000000000040460
:10582000080810102020404080800000000038440C
:10583000828282828282828244380000000010705C
:105840001010101010101010107C000000003844D0
:10585000828204081020408284FC0000000038444A
:105860008202043804020282443800000000040C62
:10587000141424244444FE04040E00000000FC80A0
:105880008080B8C4820202828478000000003C421A
:105890008280B8C4828282824438000000007E4246
:1058A000820404080808101010100000000038449A
:1058B00082824438448282824438000000003844A6
:1058C00082828282463A0282443800000000000050
:1058D0001010000000001010000000000000000088
:1058E0001010000000000010102000000000000058
:1058F000061860806018060000000000000000002C
:105900000000FE0000FE000000000000000000009B
:10591000C0300C020C30C00000000000003844828F
:10592000820204081010100010100000000038441B
:10593000829AAAAAAAAAAA9680423C000000101045
:105940001028282844447C4444EE00000000FC4217
:105950004242427C4242424242FC000000003C443F
:105960008280808080808282443800000000F84479
:10597000424242424242424244F800000000FC449B
:105980004240447C4440404244FC00000000FC444F
:105990004240447C4440404040F000000000344C11
:1059A000828080808E8484844C3400000000EE4429
:1059B0004444447C4444444444EE000000007C10D1
:1059C0001010101010101010107C000000003E0885
:1059D0000808080808080888887000000000EE44DD
:1059E000484850605048484444EE00000000E04001
:1059F000404040404040404244FC00000000C6445B
:105A00006C6C6C545454444444EE00000000CE448A
:105A100064646454544C4C4C44E40000000038442A
:105A20008282828282828282443800000000F844AE
:105A3000424242447840404040E000000000384488
:105A400082828282828282BA443C02000000F04854
:105A5000444444487048444444E6000000003C4448
:105A6000828040300C0202824478000000007C54A6
:105A70009210101010101010103800000000EE44AA
:105A80004444444444444444443800000000EE4448
:105A90004444442828282810101000000000EE4438
:105AA0005454545454542828282800000000EE442C
:105AB000442828101028284444EE00000000EE443A
:105AC00044282828101010101038000000007E44D0
:105AD000840808102020408284FC0000001C101064
